{
  "contractName": "PropertyRegistry",
  "abi": [
    {
      "constant": true,
      "inputs": [],
      "name": "property",
      "outputs": [
        {
          "name": "",
          "type": "address"
        }
      ],
      "payable": false,
      "stateMutability": "view",
      "type": "function"
    },
    {
      "constant": true,
      "inputs": [],
      "name": "propertyToken",
      "outputs": [
        {
          "name": "",
          "type": "address"
        }
      ],
      "payable": false,
      "stateMutability": "view",
      "type": "function"
    },
    {
      "constant": true,
      "inputs": [
        {
          "name": "",
          "type": "uint256"
        }
      ],
      "name": "stayData",
      "outputs": [
        {
          "name": "price",
          "type": "uint256"
        },
        {
          "name": "stays",
          "type": "uint256"
        }
      ],
      "payable": false,
      "stateMutability": "view",
      "type": "function"
    },
    {
      "inputs": [
        {
          "name": "_property",
          "type": "address"
        },
        {
          "name": "_propertyToken",
          "type": "address"
        }
      ],
      "payable": false,
      "stateMutability": "nonpayable",
      "type": "constructor"
    },
    {
      "anonymous": false,
      "inputs": [
        {
          "indexed": true,
          "name": "_tokenId",
          "type": "uint256"
        }
      ],
      "name": "Registered",
      "type": "event"
    },
    {
      "anonymous": false,
      "inputs": [
        {
          "indexed": true,
          "name": "_tokenId",
          "type": "uint256"
        }
      ],
      "name": "Approved",
      "type": "event"
    },
    {
      "anonymous": false,
      "inputs": [
        {
          "indexed": true,
          "name": "_tokenId",
          "type": "uint256"
        }
      ],
      "name": "Requested",
      "type": "event"
    },
    {
      "anonymous": false,
      "inputs": [
        {
          "indexed": true,
          "name": "_tokenId",
          "type": "uint256"
        }
      ],
      "name": "CheckedIn",
      "type": "event"
    },
    {
      "anonymous": false,
      "inputs": [
        {
          "indexed": true,
          "name": "_tokenId",
          "type": "uint256"
        }
      ],
      "name": "CheckedOut",
      "type": "event"
    },
    {
      "constant": false,
      "inputs": [
        {
          "name": "_tokenId",
          "type": "uint256"
        },
        {
          "name": "_price",
          "type": "uint256"
        }
      ],
      "name": "registerProperty",
      "outputs": [],
      "payable": false,
      "stateMutability": "nonpayable",
      "type": "function"
    },
    {
      "constant": false,
      "inputs": [
        {
          "name": "_tokenId",
          "type": "uint256"
        },
        {
          "name": "_checkIn",
          "type": "uint256"
        },
        {
          "name": "_checkOut",
          "type": "uint256"
        }
      ],
      "name": "request",
      "outputs": [],
      "payable": false,
      "stateMutability": "nonpayable",
      "type": "function"
    },
    {
      "constant": false,
      "inputs": [
        {
          "name": "_tokenId",
          "type": "uint256"
        },
        {
          "name": "guestAddress",
          "type": "address"
        }
      ],
      "name": "approveRequest",
      "outputs": [],
      "payable": false,
      "stateMutability": "nonpayable",
      "type": "function"
    },
    {
      "constant": false,
      "inputs": [
        {
          "name": "_tokenId",
          "type": "uint256"
        }
      ],
      "name": "checkIn",
      "outputs": [],
      "payable": false,
      "stateMutability": "nonpayable",
      "type": "function"
    },
    {
      "constant": false,
      "inputs": [
        {
          "name": "_tokenId",
          "type": "uint256"
        }
      ],
      "name": "checkOut",
      "outputs": [],
      "payable": false,
      "stateMutability": "nonpayable",
      "type": "function"
    },
    {
      "constant": true,
      "inputs": [
        {
          "name": "_tokenId",
          "type": "uint256"
        },
        {
          "name": "_guestAddress",
          "type": "address"
        }
      ],
      "name": "getStayData",
      "outputs": [
        {
          "name": "",
          "type": "uint256"
        },
        {
          "name": "",
          "type": "uint256"
        },
        {
          "name": "",
          "type": "uint256"
        },
        {
          "name": "",
          "type": "address[]"
        },
        {
          "name": "",
          "type": "address[]"
        },
        {
          "name": "",
          "type": "address[]"
        }
      ],
      "payable": false,
      "stateMutability": "view",
      "type": "function"
    },
    {
      "constant": true,
      "inputs": [
        {
          "name": "guestType",
          "type": "uint8"
        },
        {
          "name": "tokenId",
          "type": "uint256"
        },
        {
          "name": "index",
          "type": "uint256"
        }
      ],
      "name": "getArrayItem",
      "outputs": [
        {
          "name": "",
          "type": "address"
        }
      ],
      "payable": false,
      "stateMutability": "view",
      "type": "function"
    }
  ],
  "bytecode": "0x608060405234801561001057600080fd5b506040516040806124be8339810180604052810190808051906020019092919080519060200190929190505050816000806101000a81548173ffffffffffffffffffffffffffffffffffffffff021916908373ffffffffffffffffffffffffffffffffffffffff16021790555080600160006101000a81548173ffffffffffffffffffffffffffffffffffffffff021916908373ffffffffffffffffffffffffffffffffffffffff16021790555050506123ef806100cf6000396000f3006080604052600436106100a4576000357c0100000000000000000000000000000000000000000000000000000000900463ffffffff168063176fd3f0146100a95780631bd2eeee1461010057806343ae26951461012d5780637415733b14610184578063bc045df8146101cc578063c2e10ef814610219578063d4e38f5414610250578063e65befd1146102d4578063e95a644f14610315578063e974e08e14610342575b600080fd5b3480156100b557600080fd5b506100be610489565b604051808273ffffffffffffffffffffffffffffffffffffffff1673ffffffffffffffffffffffffffffffffffffffff16815260200191505060405180910390f35b34801561010c57600080fd5b5061012b600480360381019080803590602001909291905050506104ae565b005b34801561013957600080fd5b506101426108f9565b604051808273ffffffffffffffffffffffffffffffffffffffff1673ffffffffffffffffffffffffffffffffffffffff16815260200191505060405180910390f35b34801561019057600080fd5b506101af6004803603810190808035906020019092919050505061091f565b604051808381526020018281526020019250505060405180910390f35b3480156101d857600080fd5b5061021760048036038101908080359060200190929190803573ffffffffffffffffffffffffffffffffffffffff169060200190929190505050610943565b005b34801561022557600080fd5b5061024e6004803603810190808035906020019092919080359060200190929190505050610d53565b005b34801561025c57600080fd5b50610292600480360381019080803560ff1690602001909291908035906020019092919080359060200190929190505050610fc4565b604051808273ffffffffffffffffffffffffffffffffffffffff1673ffffffffffffffffffffffffffffffffffffffff16815260200191505060405180910390f35b3480156102e057600080fd5b506103136004803603810190808035906020019092919080359060200190929190803590602001909291905050506111ad565b005b34801561032157600080fd5b506103406004803603810190808035906020019092919050505061160c565b005b34801561034e57600080fd5b5061038d60048036038101908080359060200190929190803573ffffffffffffffffffffffffffffffffffffffff169060200190929190505050611cf3565b60405180878152602001868152602001858152602001806020018060200180602001848103845287818151815260200191508051906020019060200280838360005b838110156103ea5780820151818401526020810190506103cf565b50505050905001848103835286818151815260200191508051906020019060200280838360005b8381101561042c578082015181840152602081019050610411565b50505050905001848103825285818151815260200191508051906020019060200280838360005b8381101561046e578082015181840152602081019050610453565b50505050905001995050505050505050505060405180910390f35b6000809054906101000a900473ffffffffffffffffffffffffffffffffffffffff1681565b6000600260008381526020019081526020016000206000015411151561053c576040517f08c379a00000000000000000000000000000000000000000000000000000000081526004018080602001828103825260128152602001807f746f6b656e496420697320696e76616c6964000000000000000000000000000081525060200191505060405180910390fd5b6105e0600260008381526020019081526020016000206002018054806020026020016040519081016040528092919081815260200182805480156105d557602002820191906000526020600020905b8160009054906101000a900473ffffffffffffffffffffffffffffffffffffffff1673ffffffffffffffffffffffffffffffffffffffff168152602001906001019080831161058b575b505050505033611fb2565b1515610654576040517f08c379a000000000000000000000000000000000000000000000000000000000815260040180806020018281038252601a8152602001807f6973206e6f7420616e20617070726f766564206164647265737300000000000081525060200191505060405180910390fd5b61066060028233612030565b61066c60018233612030565b61067860008233612030565b600160009054906101000a900473ffffffffffffffffffffffffffffffffffffffff1673ffffffffffffffffffffffffffffffffffffffff1663a9059cbb6000809054906101000a900473ffffffffffffffffffffffffffffffffffffffff1673ffffffffffffffffffffffffffffffffffffffff16636352211e846040518263ffffffff167c010000000000000000000000000000000000000000000000000000000002815260040180828152602001915050602060405180830381600087803b15801561074657600080fd5b505af115801561075a573d6000803e3d6000fd5b505050506040513d602081101561077057600080fd5b810190808051906020019092919050505060026000858152602001908152602001600020600001546040518363ffffffff167c0100000000000000000000000000000000000000000000000000000000028152600401808373ffffffffffffffffffffffffffffffffffffffff1673ffffffffffffffffffffffffffffffffffffffff16815260200182815260200192505050602060405180830381600087803b15801561081d57600080fd5b505af1158015610831573d6000803e3d6000fd5b505050506040513d602081101561084757600080fd5b8101908080519060200190929190505050151561086357600080fd5b6002600082815260200190815260200160002060050160003373ffffffffffffffffffffffffffffffffffffffff1673ffffffffffffffffffffffffffffffffffffffff16815260200190815260200160002060008082016000905560018201600090555050807f484d6a78aff107b13227d3005e91c4967e9d387e9c8b44953f3f95f18308a92660405160405180910390a250565b600160009054906101000a900473ffffffffffffffffffffffffffffffffffffffff1681565b60026020528060005260406000206000915090508060000154908060010154905082565b816000809054906101000a900473ffffffffffffffffffffffffffffffffffffffff1673ffffffffffffffffffffffffffffffffffffffff16636352211e826040518263ffffffff167c010000000000000000000000000000000000000000000000000000000002815260040180828152602001915050602060405180830381600087803b1580156109d457600080fd5b505af11580156109e8573d6000803e3d6000fd5b505050506040513d60208110156109fe57600080fd5b810190808051906020019092919050505073ffffffffffffffffffffffffffffffffffffffff163373ffffffffffffffffffffffffffffffffffffffff16141515610a4857600080fd5b60008314151515610ac1576040517f08c379a00000000000000000000000000000000000000000000000000000000081526004018080602001828103825260138152602001807f546f6b656e204964206973206e6f74207365740000000000000000000000000081525060200191505060405180910390fd5b610b6560026000858152602001908152602001600020600401805480602002602001604051908101604052809291908181526020018280548015610b5a57602002820191906000526020600020905b8160009054906101000a900473ffffffffffffffffffffffffffffffffffffffff1673ffffffffffffffffffffffffffffffffffffffff1681526020019060010190808311610b10575b505050505083611fb2565b1515610bd9576040517f08c379a000000000000000000000000000000000000000000000000000000000815260040180806020018281038252601c8152602001807f6e6f20726571756573747320666f72207468697320616464726573730000000081525060200191505060405180910390fd5b60006002600085815260200190815260200160002060050160008473ffffffffffffffffffffffffffffffffffffffff1673ffffffffffffffffffffffffffffffffffffffff16815260200190815260200160002060000154111515610ca7576040517f08c379a00000000000000000000000000000000000000000000000000000000081526004018080602001828103825260188152602001807f7265717565737420616c726561647920617070726f766564000000000000000081525060200191505060405180910390fd5b600260008481526020019081526020016000206003018290806001815401808255809150509060018203906000526020600020016000909192909190916101000a81548173ffffffffffffffffffffffffffffffffffffffff021916908373ffffffffffffffffffffffffffffffffffffffff16021790555050827f3ad93af63cb7967b23e4fb500b7d7d28b07516325dcf341f88bebf959d82c1cb60405160405180910390a2505050565b816000809054906101000a900473ffffffffffffffffffffffffffffffffffffffff1673ffffffffffffffffffffffffffffffffffffffff16636352211e826040518263ffffffff167c010000000000000000000000000000000000000000000000000000000002815260040180828152602001915050602060405180830381600087803b158015610de457600080fd5b505af1158015610df8573d6000803e3d6000fd5b505050506040513d6020811015610e0e57600080fd5b810190808051906020019092919050505073ffffffffffffffffffffffffffffffffffffffff163373ffffffffffffffffffffffffffffffffffffffff16141515610e5857600080fd5b60a060405190810160405280838152602001600081526020016000604051908082528060200260200182016040528015610ea15781602001602082028038833980820191505090505b5081526020016000604051908082528060200260200182016040528015610ed75781602001602082028038833980820191505090505b5081526020016000604051908082528060200260200182016040528015610f0d5781602001602082028038833980820191505090505b508152506002600085815260200190815260200160002060008201518160000155602082015181600101556040820151816002019080519060200190610f549291906122a5565b506060820151816003019080519060200190610f719291906122a5565b506080820151816004019080519060200190610f8e9291906122a5565b50905050827f1fcb8fd4a09d0facf37b6e1cd47a0cce5aa0b069a1d3d5bd9c223220fa1f5a1c60405160405180910390a2505050565b6000806002811115610fd257fe5b846002811115610fde57fe5b14156110645760026000848152602001908152602001600020600401805490508210151561100f57600090506111a6565b600260008481526020019081526020016000206004018281548110151561103257fe5b9060005260206000200160009054906101000a900473ffffffffffffffffffffffffffffffffffffffff1690506111a6565b6001600281111561107157fe5b84600281111561107d57fe5b1415611103576002600084815260200190815260200160002060030180549050821015156110ae57600090506111a6565b60026000848152602001908152602001600020600301828154811015156110d157fe5b9060005260206000200160009054906101000a900473ffffffffffffffffffffffffffffffffffffffff1690506111a6565b60028081111561110f57fe5b84600281111561111b57fe5b14156111a15760026000848152602001908152602001600020600201805490508210151561114c57600090506111a6565b600260008481526020019081526020016000206002018281548110151561116f57fe5b9060005260206000200160009054906101000a900473ffffffffffffffffffffffffffffffffffffffff1690506111a6565b600090505b9392505050565b60008214151515611226576040517f08c379a00000000000000000000000000000000000000000000000000000000081526004018080602001828103825260188152602001807f636865636b20696e2064617465206973206e6f7420736574000000000000000081525060200191505060405180910390fd5b6000811415151561129f576040517f08c379a00000000000000000000000000000000000000000000000000000000081526004018080602001828103825260198152602001807f636865636b206f75742064617465206973206e6f74207365740000000000000081525060200191505060405180910390fd5b818111151561133c576040517f08c379a000000000000000000000000000000000000000000000000000000000815260040180806020018281038252602c8152602001807f436865636b204f757420646174652073686f756c64206265206166746572206381526020017f6865636b20496e2064617465000000000000000000000000000000000000000081525060400191505060405180910390fd5b600060026000858152602001908152602001600020600001541115156113ca576040517f08c379a00000000000000000000000000000000000000000000000000000000081526004018080602001828103825260128152602001807f746f6b656e496420697320696e76616c6964000000000000000000000000000081525060200191505060405180910390fd5b61146e6002600085815260200190815260200160002060030180548060200260200160405190810160405280929190818152602001828054801561146357602002820191906000526020600020905b8160009054906101000a900473ffffffffffffffffffffffffffffffffffffffff1673ffffffffffffffffffffffffffffffffffffffff1681526020019060010190808311611419575b505050505033611fb2565b156114e1576040517f08c379a00000000000000000000000000000000000000000000000000000000081526004018080602001828103825260108152602001807f416c726561647920617070726f7665640000000000000000000000000000000081525060200191505060405180910390fd5b600260008481526020019081526020016000206004013390806001815401808255809150509060018203906000526020600020016000909192909190916101000a81548173ffffffffffffffffffffffffffffffffffffffff021916908373ffffffffffffffffffffffffffffffffffffffff160217905550506040805190810160405280838152602001828152506002600085815260200190815260200160002060050160003373ffffffffffffffffffffffffffffffffffffffff1673ffffffffffffffffffffffffffffffffffffffff1681526020019081526020016000206000820151816000015560208201518160010155905050827f54593fbf3d0e13af724316e44a7387ee756ab753993496c7009658e83217002c60405160405180910390a2505050565b6000600260008381526020019081526020016000206000015411151561169a576040517f08c379a00000000000000000000000000000000000000000000000000000000081526004018080602001828103825260128152602001807f746f6b656e496420697320696e76616c6964000000000000000000000000000081525060200191505060405180910390fd5b61173e6002600083815260200190815260200160002060030180548060200260200160405190810160405280929190818152602001828054801561173357602002820191906000526020600020905b8160009054906101000a900473ffffffffffffffffffffffffffffffffffffffff1673ffffffffffffffffffffffffffffffffffffffff16815260200190600101908083116116e9575b505050505033611fb2565b15156117b2576040517f08c379a000000000000000000000000000000000000000000000000000000000815260040180806020018281038252601a8152602001807f6973206e6f7420616e20617070726f766564206164647265737300000000000081525060200191505060405180910390fd5b6118566002600083815260200190815260200160002060020180548060200260200160405190810160405280929190818152602001828054801561184b57602002820191906000526020600020905b8160009054906101000a900473ffffffffffffffffffffffffffffffffffffffff1673ffffffffffffffffffffffffffffffffffffffff1681526020019060010190808311611801575b505050505033611fb2565b1515156118cb576040517f08c379a00000000000000000000000000000000000000000000000000000000081526004018080602001828103825260158152602001807f697320616c726561647920636865636b656420696e000000000000000000000081525060200191505060405180910390fd5b600160009054906101000a900473ffffffffffffffffffffffffffffffffffffffff1673ffffffffffffffffffffffffffffffffffffffff166323b872dd333060026000868152602001908152602001600020600001546040518463ffffffff167c0100000000000000000000000000000000000000000000000000000000028152600401808473ffffffffffffffffffffffffffffffffffffffff1673ffffffffffffffffffffffffffffffffffffffff1681526020018373ffffffffffffffffffffffffffffffffffffffff1673ffffffffffffffffffffffffffffffffffffffff1681526020018281526020019350505050602060405180830381600087803b1580156119da57600080fd5b505af11580156119ee573d6000803e3d6000fd5b505050506040513d6020811015611a0457600080fd5b81019080805190602001909291905050501515611a89576040517f08c379a00000000000000000000000000000000000000000000000000000000081526004018080602001828103825260118152602001807f6e6f7420656e6f75676820746f6b656e7300000000000000000000000000000081525060200191505060405180910390fd5b426002600083815260200190815260200160002060050160003373ffffffffffffffffffffffffffffffffffffffff1673ffffffffffffffffffffffffffffffffffffffff16815260200190815260200160002060000154101515611b56576040517f08c379a00000000000000000000000000000000000000000000000000000000081526004018080602001828103825260158152602001807f746f6f206561726c7920746f20636865636b20696e000000000000000000000081525060200191505060405180910390fd5b426002600083815260200190815260200160002060050160003373ffffffffffffffffffffffffffffffffffffffff1673ffffffffffffffffffffffffffffffffffffffff16815260200190815260200160002060010154111515611c23576040517f08c379a00000000000000000000000000000000000000000000000000000000081526004018080602001828103825260148152602001807f746f6f206c61746520746f20636865636b20696e00000000000000000000000081525060200191505060405180910390fd5b600260008281526020019081526020016000206002013390806001815401808255809150509060018203906000526020600020016000909192909190916101000a81548173ffffffffffffffffffffffffffffffffffffffff021916908373ffffffffffffffffffffffffffffffffffffffff160217905550506002600082815260200190815260200160002060010160008154809291906001019190505550807f10114a3921e255a9ca7fe6729a90430550edc377c3a1f0a2b2456d778f85218460405160405180910390a250565b600080600060608060606002600089815260200190815260200160002060000154600260008a815260200190815260200160002060050160008973ffffffffffffffffffffffffffffffffffffffff1673ffffffffffffffffffffffffffffffffffffffff16815260200190815260200160002060000154600260008b815260200190815260200160002060050160008a73ffffffffffffffffffffffffffffffffffffffff1673ffffffffffffffffffffffffffffffffffffffff16815260200190815260200160002060010154600260008c8152602001908152602001600020600401600260008d8152602001908152602001600020600301600260008e815260200190815260200160002060020182805480602002602001604051908101604052809291908181526020018280548015611e8557602002820191906000526020600020905b8160009054906101000a900473ffffffffffffffffffffffffffffffffffffffff1673ffffffffffffffffffffffffffffffffffffffff1681526020019060010190808311611e3b575b5050505050925081805480602002602001604051908101604052809291908181526020018280548015611f0d57602002820191906000526020600020905b8160009054906101000a900473ffffffffffffffffffffffffffffffffffffffff1673ffffffffffffffffffffffffffffffffffffffff1681526020019060010190808311611ec3575b5050505050915080805480602002602001604051908101604052809291908181526020018280548015611f9557602002820191906000526020600020905b8160009054906101000a900473ffffffffffffffffffffffffffffffffffffffff1673ffffffffffffffffffffffffffffffffffffffff1681526020019060010190808311611f4b575b505050505090509550955095509550955095509295509295509295565b60008060008090505b8451811015612025578373ffffffffffffffffffffffffffffffffffffffff168582815181101515611fe957fe5b9060200190602002015173ffffffffffffffffffffffffffffffffffffffff1614156120185760019150612025565b8080600101915050611fbb565b819250505092915050565b6000806000806000600281111561204357fe5b87600281111561204f57fe5b1415612072576002600087815260200190815260200160002060040191506120f0565b6001600281111561207f57fe5b87600281111561208b57fe5b14156120ae576002600087815260200190815260200160002060030191506120ef565b6002808111156120ba57fe5b8760028111156120c657fe5b14156120e9576002600087815260200190815260200160002060020191506120ee565b61229c565b5b5b600090505b8180549050811015612186578473ffffffffffffffffffffffffffffffffffffffff16828281548110151561212657fe5b9060005260206000200160009054906101000a900473ffffffffffffffffffffffffffffffffffffffff1673ffffffffffffffffffffffffffffffffffffffff1614156121795780935060019250612186565b80806001019150506120f5565b8215156121925761229c565b8390505b60018280549050038110156122445781600182018154811015156121b657fe5b9060005260206000200160009054906101000a900473ffffffffffffffffffffffffffffffffffffffff1682828154811015156121ef57fe5b9060005260206000200160006101000a81548173ffffffffffffffffffffffffffffffffffffffff021916908373ffffffffffffffffffffffffffffffffffffffff1602179055508080600101915050612196565b81600183805490500381548110151561225957fe5b9060005260206000200160006101000a81549073ffffffffffffffffffffffffffffffffffffffff02191690558180548091906001900361229a919061232f565b505b50505050505050565b82805482825590600052602060002090810192821561231e579160200282015b8281111561231d5782518260006101000a81548173ffffffffffffffffffffffffffffffffffffffff021916908373ffffffffffffffffffffffffffffffffffffffff160217905550916020019190600101906122c5565b5b50905061232b919061235b565b5090565b81548183558181111561235657818360005260206000209182019101612355919061239e565b5b505050565b61239b91905b8082111561239757600081816101000a81549073ffffffffffffffffffffffffffffffffffffffff021916905550600101612361565b5090565b90565b6123c091905b808211156123bc5760008160009055506001016123a4565b5090565b905600a165627a7a72305820932e6d77469d166bf01e6b04b3fe3cd7fea1b03328d0f954397d74a51259480e0029",
  "source": "pragma solidity ^0.4.24;\n\nimport \"openzeppelin-solidity/contracts/token/ERC721/ERC721Basic.sol\";\nimport 'openzeppelin-solidity/contracts/token/ERC20/ERC20.sol';\n\ncontract PropertyRegistry {\n  ERC721Basic public property;\n  ERC20 public propertyToken;\n\n  mapping(uint256 => Data) public stayData;\n\n  struct Request {\n    uint256 checkIn;\n    uint256 checkOut;\n  }\n\n  struct Data{\n    uint256 price;\n    uint256 stays;\n    address[] occupants;\n    address[] approved;\n    address[] requested;\n    mapping(address => Request) requests;\n  }\n\n  enum GuestType {REQUESTED, APPROVED, OCCUPIED}\n\n  event Registered(uint256 indexed _tokenId);\n  event Approved(uint256 indexed _tokenId);\n  event Requested(uint256 indexed _tokenId);\n  event CheckedIn(uint256 indexed _tokenId);\n  event CheckedOut(uint256 indexed _tokenId);\n\n  modifier onlyOwner(uint256 _tokenId){\n    require(msg.sender == property.ownerOf(_tokenId));\n    _;\n  }\n\n  constructor(address _property, address _propertyToken) public {\n    property = ERC721Basic(_property);\n    propertyToken = ERC20(_propertyToken);\n  }\n\n    function registerProperty(uint256 _tokenId, uint256 _price) public onlyOwner(_tokenId){\n    stayData[_tokenId] = Data(_price, 0, new address[](0),  new address[](0),  new address[](0));\n    emit Registered(_tokenId);\n  }\n\n  function request(uint256 _tokenId, uint256 _checkIn, uint256 _checkOut) external {\n    //validate input parms\n    require(_checkIn != 0, \"check in date is not set\");\n    require(_checkOut != 0, \"check out date is not set\");\n    require(_checkOut > _checkIn, \"Check Out date should be after check In date\");\n    require(stayData[_tokenId].price > 0, \"tokenId is invalid\");\n\n    //make sure request is approved only once\n    //ADD: check CheckIn/CheckOut dates\n    if (isInArray(stayData[_tokenId].approved, msg.sender))\n      revert(\"Already approved\");\n\n    stayData[_tokenId].requested.push(msg.sender);\n    stayData[_tokenId].requests[msg.sender] = Request(_checkIn, _checkOut);\n    emit Requested(_tokenId);\n  }\n\n  function approveRequest(uint256 _tokenId, address guestAddress) external onlyOwner(_tokenId)\n  {\n    require(_tokenId != 0, \"Token Id is not set\");\n    require(isInArray(stayData[_tokenId].requested, guestAddress), \"no requests for this address\");\n    require(stayData[_tokenId].requests[guestAddress].checkIn > 0, \"request already approved\");\n\n    stayData[_tokenId].approved.push(guestAddress);\n    emit Approved(_tokenId);\n  }\n\n  function checkIn(uint256 _tokenId) public {\n    require(stayData[_tokenId].price > 0, \"tokenId is invalid\");\n    require(isInArray(stayData[_tokenId].approved, msg.sender), \"is not an approved address\");\n    require(!isInArray(stayData[_tokenId].occupants, msg.sender), \"is already checked in\");\n\n    //reserve funds\n    require(propertyToken.transferFrom(msg.sender, this, stayData[_tokenId].price), \"not enough tokens\");\n\n    //validate CheckIn time\n    require(stayData[_tokenId].requests[msg.sender].checkIn < now, \"too early to check in\");\n    require(stayData[_tokenId].requests[msg.sender].checkOut > now, \"too late to check in\");\n\n    stayData[_tokenId].occupants.push(msg.sender);\n    stayData[_tokenId].stays++;\n    emit CheckedIn(_tokenId);\n  }\n\n  function checkOut(uint256 _tokenId) public{\n    require(stayData[_tokenId].price > 0, \"tokenId is invalid\");\n    require(isInArray(stayData[_tokenId].occupants, msg.sender), \"is not an approved address\");\n\n    //remove occupants record\n    removeFromArray(GuestType.OCCUPIED, _tokenId, msg.sender);\n    //remove approved record\n    removeFromArray(GuestType.APPROVED, _tokenId, msg.sender);\n    //remove requested record\n    removeFromArray(GuestType.REQUESTED, _tokenId, msg.sender);\n\n    //transfer funds to property owner\n    require(propertyToken.transfer(property.ownerOf(_tokenId), stayData[_tokenId].price));\n\n    //remove reservation struct\n    delete stayData[_tokenId].requests[msg.sender]; //remove request struct;\n    emit CheckedOut(_tokenId);\n  }\n\n  function getStayData(uint256 _tokenId, address _guestAddress) external view returns(uint256, uint256, uint256, address[], address[], address[]){\n      /*uint8 status = 99;\n\n      if (isInArray(stayData[_tokenId].occupants, _guestAddress))\n        status = uint8(GuestType.OCCUPIED);\n      else if (isInArray(stayData[_tokenId].approved, _guestAddress))\n        status = uint8(GuestType.APPROVED);\n      else if (isInArray(stayData[_tokenId].requested, _guestAddress))\n        status = uint8(GuestType.REQUESTED);**/\n\n      return (stayData[_tokenId].price, stayData[_tokenId].requests[_guestAddress].checkIn, stayData[_tokenId].requests[_guestAddress].checkOut, stayData[_tokenId].requested, stayData[_tokenId].approved, stayData[_tokenId].occupants);\n  }\n\n  //helper functions\n  //move to different file?\n  function getArrayItem(GuestType guestType, uint256 tokenId, uint256 index) public view returns(address){\n    if (guestType == GuestType.REQUESTED){\n      if (index >= stayData[tokenId].requested.length)\n        return 0x0;\n      return stayData[tokenId].requested[index];\n    }\n    else if (guestType == GuestType.APPROVED) {\n      if (index >= stayData[tokenId].approved.length)\n        return 0x0;\n      return stayData[tokenId].approved[index];\n    }\n    else if (guestType == GuestType.OCCUPIED){\n      if (index >= stayData[tokenId].occupants.length)\n        return 0x0;\n      return stayData[tokenId].occupants[index];\n    }\n    else\n      return 0x0;\n  }\n\n  function isInArray(address[] arr, address val) private pure returns(bool){\n    bool exists;\n    for (uint256 i = 0; i < arr.length; i++){\n      if (arr[i] == val){\n        exists = true;\n        break;\n      }\n    }\n    return exists;\n  }\n\n  function removeFromArray(GuestType guestType, uint256 tokenId, address val) private {\n      uint256 index;\n      bool exists;\n      address[] storage arr;\n\n      if (guestType == GuestType.REQUESTED)\n        arr = stayData[tokenId].requested;\n      else if (guestType == GuestType.APPROVED)\n        arr = stayData[tokenId].approved;\n      else if (guestType == GuestType.OCCUPIED)\n        arr = stayData[tokenId].occupants;\n      else\n        return;\n\n      for (uint256 i = 0; i < arr.length; i++){\n        if (arr[i] == val){\n          index = i;\n          exists = true;\n          break;\n        }\n      }\n\n      if (!exists)\n        return;\n\n      for (i = index; i < arr.length - 1; i++){\n        arr[i] =  arr[i+1];\n      }\n      delete arr[arr.length-1];\n      arr.length--;\n    }\n}\n",
  "sourcePath": "C:\\Projects\\Lightlabs\\Property\\contracts\\PropertyRegistry.sol",
  "compiler": {
    "name": "solc",
    "version": "0.4.24+commit.e67f0147.Emscripten.clang"
  },
  "schemaVersion": "2.0.1",
  "updatedAt": "2018-10-13T06:57:22.917Z"
}