{
  "contractName": "PropertyRegistry",
  "abi": [
    {
      "constant": true,
      "inputs": [],
      "name": "property",
      "outputs": [
        {
          "name": "",
          "type": "address"
        }
      ],
      "payable": false,
      "stateMutability": "view",
      "type": "function"
    },
    {
      "constant": true,
      "inputs": [],
      "name": "propertyToken",
      "outputs": [
        {
          "name": "",
          "type": "address"
        }
      ],
      "payable": false,
      "stateMutability": "view",
      "type": "function"
    },
    {
      "constant": true,
      "inputs": [
        {
          "name": "",
          "type": "uint256"
        }
      ],
      "name": "stayData",
      "outputs": [
        {
          "name": "price",
          "type": "uint256"
        },
        {
          "name": "stays",
          "type": "uint256"
        }
      ],
      "payable": false,
      "stateMutability": "view",
      "type": "function"
    },
    {
      "inputs": [
        {
          "name": "_property",
          "type": "address"
        },
        {
          "name": "_propertyToken",
          "type": "address"
        }
      ],
      "payable": false,
      "stateMutability": "nonpayable",
      "type": "constructor"
    },
    {
      "anonymous": false,
      "inputs": [
        {
          "indexed": true,
          "name": "_tokenId",
          "type": "uint256"
        }
      ],
      "name": "Registered",
      "type": "event"
    },
    {
      "anonymous": false,
      "inputs": [
        {
          "indexed": true,
          "name": "_tokenId",
          "type": "uint256"
        }
      ],
      "name": "Approved",
      "type": "event"
    },
    {
      "anonymous": false,
      "inputs": [
        {
          "indexed": true,
          "name": "_tokenId",
          "type": "uint256"
        }
      ],
      "name": "Requested",
      "type": "event"
    },
    {
      "anonymous": false,
      "inputs": [
        {
          "indexed": true,
          "name": "_tokenId",
          "type": "uint256"
        }
      ],
      "name": "CheckedIn",
      "type": "event"
    },
    {
      "anonymous": false,
      "inputs": [
        {
          "indexed": true,
          "name": "_tokenId",
          "type": "uint256"
        }
      ],
      "name": "CheckedOut",
      "type": "event"
    },
    {
      "constant": false,
      "inputs": [
        {
          "name": "_tokenId",
          "type": "uint256"
        },
        {
          "name": "_price",
          "type": "uint256"
        }
      ],
      "name": "registerProperty",
      "outputs": [],
      "payable": false,
      "stateMutability": "nonpayable",
      "type": "function"
    },
    {
      "constant": false,
      "inputs": [
        {
          "name": "_tokenId",
          "type": "uint256"
        },
        {
          "name": "_checkIn",
          "type": "uint256"
        },
        {
          "name": "_checkOut",
          "type": "uint256"
        }
      ],
      "name": "request",
      "outputs": [],
      "payable": false,
      "stateMutability": "nonpayable",
      "type": "function"
    },
    {
      "constant": false,
      "inputs": [
        {
          "name": "_tokenId",
          "type": "uint256"
        },
        {
          "name": "guestAddress",
          "type": "address"
        }
      ],
      "name": "approveRequest",
      "outputs": [],
      "payable": false,
      "stateMutability": "nonpayable",
      "type": "function"
    },
    {
      "constant": false,
      "inputs": [
        {
          "name": "_tokenId",
          "type": "uint256"
        }
      ],
      "name": "checkIn",
      "outputs": [],
      "payable": false,
      "stateMutability": "nonpayable",
      "type": "function"
    },
    {
      "constant": false,
      "inputs": [
        {
          "name": "_tokenId",
          "type": "uint256"
        }
      ],
      "name": "checkOut",
      "outputs": [],
      "payable": false,
      "stateMutability": "nonpayable",
      "type": "function"
    },
    {
      "constant": true,
      "inputs": [
        {
          "name": "_tokenId",
          "type": "uint256"
        },
        {
          "name": "_guestAddress",
          "type": "address"
        }
      ],
      "name": "getStayDataDetails",
      "outputs": [
        {
          "name": "",
          "type": "uint256"
        },
        {
          "name": "",
          "type": "uint256"
        },
        {
          "name": "",
          "type": "uint256"
        },
        {
          "name": "",
          "type": "address[]"
        },
        {
          "name": "",
          "type": "address[]"
        },
        {
          "name": "",
          "type": "address[]"
        }
      ],
      "payable": false,
      "stateMutability": "view",
      "type": "function"
    },
    {
      "constant": true,
      "inputs": [
        {
          "name": "_tokenId",
          "type": "uint256"
        }
      ],
      "name": "getStayData",
      "outputs": [
        {
          "name": "",
          "type": "uint256"
        },
        {
          "name": "",
          "type": "address[]"
        },
        {
          "name": "",
          "type": "address[]"
        },
        {
          "name": "",
          "type": "address[]"
        },
        {
          "name": "",
          "type": "uint256"
        }
      ],
      "payable": false,
      "stateMutability": "view",
      "type": "function"
    },
    {
      "constant": true,
      "inputs": [
        {
          "name": "guestType",
          "type": "uint8"
        },
        {
          "name": "tokenId",
          "type": "uint256"
        },
        {
          "name": "index",
          "type": "uint256"
        }
      ],
      "name": "getArrayItem",
      "outputs": [
        {
          "name": "",
          "type": "address"
        }
      ],
      "payable": false,
      "stateMutability": "view",
      "type": "function"
    }
  ],
  "bytecode": "0x6080604052606460035534801561001557600080fd5b506040516040806128208339810180604052810190808051906020019092919080519060200190929190505050816000806101000a81548173ffffffffffffffffffffffffffffffffffffffff021916908373ffffffffffffffffffffffffffffffffffffffff16021790555080600160006101000a81548173ffffffffffffffffffffffffffffffffffffffff021916908373ffffffffffffffffffffffffffffffffffffffff160217905550505061274c806100d46000396000f3006080604052600436106100af576000357c0100000000000000000000000000000000000000000000000000000000900463ffffffff168063176fd3f0146100b45780631bd2eeee1461010b57806338826dea1461013857806343ae26951461027f5780637415733b146102d6578063bc045df81461031e578063c2e10ef81461036b578063d4e38f54146103a2578063e65befd114610426578063e95a644f14610467578063f4daaa3514610494575b600080fd5b3480156100c057600080fd5b506100c96105b4565b604051808273ffffffffffffffffffffffffffffffffffffffff1673ffffffffffffffffffffffffffffffffffffffff16815260200191505060405180910390f35b34801561011757600080fd5b50610136600480360381019080803590602001909291905050506105d9565b005b34801561014457600080fd5b5061018360048036038101908080359060200190929190803573ffffffffffffffffffffffffffffffffffffffff169060200190929190505050610a24565b60405180878152602001868152602001858152602001806020018060200180602001848103845287818151815260200191508051906020019060200280838360005b838110156101e05780820151818401526020810190506101c5565b50505050905001848103835286818151815260200191508051906020019060200280838360005b83811015610222578082015181840152602081019050610207565b50505050905001848103825285818151815260200191508051906020019060200280838360005b83811015610264578082015181840152602081019050610249565b50505050905001995050505050505050505060405180910390f35b34801561028b57600080fd5b50610294610ce3565b604051808273ffffffffffffffffffffffffffffffffffffffff1673ffffffffffffffffffffffffffffffffffffffff16815260200191505060405180910390f35b3480156102e257600080fd5b5061030160048036038101908080359060200190929190505050610d09565b604051808381526020018281526020019250505060405180910390f35b34801561032a57600080fd5b5061036960048036038101908080359060200190929190803573ffffffffffffffffffffffffffffffffffffffff169060200190929190505050610d2d565b005b34801561037757600080fd5b506103a0600480360381019080803590602001909291908035906020019092919050505061113d565b005b3480156103ae57600080fd5b506103e4600480360381019080803560ff16906020019092919080359060200190929190803590602001909291905050506113ae565b604051808273ffffffffffffffffffffffffffffffffffffffff1673ffffffffffffffffffffffffffffffffffffffff16815260200191505060405180910390f35b34801561043257600080fd5b50610465600480360381019080803590602001909291908035906020019092919080359060200190929190505050611597565b005b34801561047357600080fd5b50610492600480360381019080803590602001909291905050506119f6565b005b3480156104a057600080fd5b506104bf600480360381019080803590602001909291905050506120eb565b60405180868152602001806020018060200180602001858152602001848103845288818151815260200191508051906020019060200280838360005b838110156105165780820151818401526020810190506104fb565b50505050905001848103835287818151815260200191508051906020019060200280838360005b8381101561055857808201518184015260208101905061053d565b50505050905001848103825286818151815260200191508051906020019060200280838360005b8381101561059a57808201518184015260208101905061057f565b505050509050019850505050505050505060405180910390f35b6000809054906101000a900473ffffffffffffffffffffffffffffffffffffffff1681565b60006002600083815260200190815260200160002060000154111515610667576040517f08c379a00000000000000000000000000000000000000000000000000000000081526004018080602001828103825260128152602001807f746f6b656e496420697320696e76616c6964000000000000000000000000000081525060200191505060405180910390fd5b61070b6002600083815260200190815260200160002060020180548060200260200160405190810160405280929190818152602001828054801561070057602002820191906000526020600020905b8160009054906101000a900473ffffffffffffffffffffffffffffffffffffffff1673ffffffffffffffffffffffffffffffffffffffff16815260200190600101908083116106b6575b50505050503361230f565b151561077f576040517f08c379a000000000000000000000000000000000000000000000000000000000815260040180806020018281038252601a8152602001807f6973206e6f7420616e20617070726f766564206164647265737300000000000081525060200191505060405180910390fd5b61078b6002823361238d565b6107976001823361238d565b6107a36000823361238d565b600160009054906101000a900473ffffffffffffffffffffffffffffffffffffffff1673ffffffffffffffffffffffffffffffffffffffff1663a9059cbb6000809054906101000a900473ffffffffffffffffffffffffffffffffffffffff1673ffffffffffffffffffffffffffffffffffffffff16636352211e846040518263ffffffff167c010000000000000000000000000000000000000000000000000000000002815260040180828152602001915050602060405180830381600087803b15801561087157600080fd5b505af1158015610885573d6000803e3d6000fd5b505050506040513d602081101561089b57600080fd5b810190808051906020019092919050505060026000858152602001908152602001600020600001546040518363ffffffff167c0100000000000000000000000000000000000000000000000000000000028152600401808373ffffffffffffffffffffffffffffffffffffffff1673ffffffffffffffffffffffffffffffffffffffff16815260200182815260200192505050602060405180830381600087803b15801561094857600080fd5b505af115801561095c573d6000803e3d6000fd5b505050506040513d602081101561097257600080fd5b8101908080519060200190929190505050151561098e57600080fd5b6002600082815260200190815260200160002060050160003373ffffffffffffffffffffffffffffffffffffffff1673ffffffffffffffffffffffffffffffffffffffff16815260200190815260200160002060008082016000905560018201600090555050807f484d6a78aff107b13227d3005e91c4967e9d387e9c8b44953f3f95f18308a92660405160405180910390a250565b600080600060608060606002600089815260200190815260200160002060000154600260008a815260200190815260200160002060050160008973ffffffffffffffffffffffffffffffffffffffff1673ffffffffffffffffffffffffffffffffffffffff16815260200190815260200160002060000154600260008b815260200190815260200160002060050160008a73ffffffffffffffffffffffffffffffffffffffff1673ffffffffffffffffffffffffffffffffffffffff16815260200190815260200160002060010154600260008c8152602001908152602001600020600401600260008d8152602001908152602001600020600301600260008e815260200190815260200160002060020182805480602002602001604051908101604052809291908181526020018280548015610bb657602002820191906000526020600020905b8160009054906101000a900473ffffffffffffffffffffffffffffffffffffffff1673ffffffffffffffffffffffffffffffffffffffff1681526020019060010190808311610b6c575b5050505050925081805480602002602001604051908101604052809291908181526020018280548015610c3e57602002820191906000526020600020905b8160009054906101000a900473ffffffffffffffffffffffffffffffffffffffff1673ffffffffffffffffffffffffffffffffffffffff1681526020019060010190808311610bf4575b5050505050915080805480602002602001604051908101604052809291908181526020018280548015610cc657602002820191906000526020600020905b8160009054906101000a900473ffffffffffffffffffffffffffffffffffffffff1673ffffffffffffffffffffffffffffffffffffffff1681526020019060010190808311610c7c575b505050505090509550955095509550955095509295509295509295565b600160009054906101000a900473ffffffffffffffffffffffffffffffffffffffff1681565b60026020528060005260406000206000915090508060000154908060010154905082565b816000809054906101000a900473ffffffffffffffffffffffffffffffffffffffff1673ffffffffffffffffffffffffffffffffffffffff16636352211e826040518263ffffffff167c010000000000000000000000000000000000000000000000000000000002815260040180828152602001915050602060405180830381600087803b158015610dbe57600080fd5b505af1158015610dd2573d6000803e3d6000fd5b505050506040513d6020811015610de857600080fd5b810190808051906020019092919050505073ffffffffffffffffffffffffffffffffffffffff163373ffffffffffffffffffffffffffffffffffffffff16141515610e3257600080fd5b60008314151515610eab576040517f08c379a00000000000000000000000000000000000000000000000000000000081526004018080602001828103825260138152602001807f546f6b656e204964206973206e6f74207365740000000000000000000000000081525060200191505060405180910390fd5b610f4f60026000858152602001908152602001600020600401805480602002602001604051908101604052809291908181526020018280548015610f4457602002820191906000526020600020905b8160009054906101000a900473ffffffffffffffffffffffffffffffffffffffff1673ffffffffffffffffffffffffffffffffffffffff1681526020019060010190808311610efa575b50505050508361230f565b1515610fc3576040517f08c379a000000000000000000000000000000000000000000000000000000000815260040180806020018281038252601c8152602001807f6e6f20726571756573747320666f72207468697320616464726573730000000081525060200191505060405180910390fd5b60006002600085815260200190815260200160002060050160008473ffffffffffffffffffffffffffffffffffffffff1673ffffffffffffffffffffffffffffffffffffffff16815260200190815260200160002060000154111515611091576040517f08c379a00000000000000000000000000000000000000000000000000000000081526004018080602001828103825260188152602001807f7265717565737420616c726561647920617070726f766564000000000000000081525060200191505060405180910390fd5b600260008481526020019081526020016000206003018290806001815401808255809150509060018203906000526020600020016000909192909190916101000a81548173ffffffffffffffffffffffffffffffffffffffff021916908373ffffffffffffffffffffffffffffffffffffffff16021790555050827f3ad93af63cb7967b23e4fb500b7d7d28b07516325dcf341f88bebf959d82c1cb60405160405180910390a2505050565b816000809054906101000a900473ffffffffffffffffffffffffffffffffffffffff1673ffffffffffffffffffffffffffffffffffffffff16636352211e826040518263ffffffff167c010000000000000000000000000000000000000000000000000000000002815260040180828152602001915050602060405180830381600087803b1580156111ce57600080fd5b505af11580156111e2573d6000803e3d6000fd5b505050506040513d60208110156111f857600080fd5b810190808051906020019092919050505073ffffffffffffffffffffffffffffffffffffffff163373ffffffffffffffffffffffffffffffffffffffff1614151561124257600080fd5b60a06040519081016040528083815260200160008152602001600060405190808252806020026020018201604052801561128b5781602001602082028038833980820191505090505b50815260200160006040519080825280602002602001820160405280156112c15781602001602082028038833980820191505090505b50815260200160006040519080825280602002602001820160405280156112f75781602001602082028038833980820191505090505b50815250600260008581526020019081526020016000206000820151816000015560208201518160010155604082015181600201908051906020019061133e929190612602565b50606082015181600301908051906020019061135b929190612602565b506080820151816004019080519060200190611378929190612602565b50905050827f1fcb8fd4a09d0facf37b6e1cd47a0cce5aa0b069a1d3d5bd9c223220fa1f5a1c60405160405180910390a2505050565b60008060028111156113bc57fe5b8460028111156113c857fe5b141561144e576002600084815260200190815260200160002060040180549050821015156113f95760009050611590565b600260008481526020019081526020016000206004018281548110151561141c57fe5b9060005260206000200160009054906101000a900473ffffffffffffffffffffffffffffffffffffffff169050611590565b6001600281111561145b57fe5b84600281111561146757fe5b14156114ed576002600084815260200190815260200160002060030180549050821015156114985760009050611590565b60026000848152602001908152602001600020600301828154811015156114bb57fe5b9060005260206000200160009054906101000a900473ffffffffffffffffffffffffffffffffffffffff169050611590565b6002808111156114f957fe5b84600281111561150557fe5b141561158b576002600084815260200190815260200160002060020180549050821015156115365760009050611590565b600260008481526020019081526020016000206002018281548110151561155957fe5b9060005260206000200160009054906101000a900473ffffffffffffffffffffffffffffffffffffffff169050611590565b600090505b9392505050565b60008214151515611610576040517f08c379a00000000000000000000000000000000000000000000000000000000081526004018080602001828103825260188152602001807f636865636b20696e2064617465206973206e6f7420736574000000000000000081525060200191505060405180910390fd5b60008114151515611689576040517f08c379a00000000000000000000000000000000000000000000000000000000081526004018080602001828103825260198152602001807f636865636b206f75742064617465206973206e6f74207365740000000000000081525060200191505060405180910390fd5b8181111515611726576040517f08c379a000000000000000000000000000000000000000000000000000000000815260040180806020018281038252602c8152602001807f436865636b204f757420646174652073686f756c64206265206166746572206381526020017f6865636b20496e2064617465000000000000000000000000000000000000000081525060400191505060405180910390fd5b600060026000858152602001908152602001600020600001541115156117b4576040517f08c379a00000000000000000000000000000000000000000000000000000000081526004018080602001828103825260128152602001807f746f6b656e496420697320696e76616c6964000000000000000000000000000081525060200191505060405180910390fd5b6118586002600085815260200190815260200160002060030180548060200260200160405190810160405280929190818152602001828054801561184d57602002820191906000526020600020905b8160009054906101000a900473ffffffffffffffffffffffffffffffffffffffff1673ffffffffffffffffffffffffffffffffffffffff1681526020019060010190808311611803575b50505050503361230f565b156118cb576040517f08c379a00000000000000000000000000000000000000000000000000000000081526004018080602001828103825260108152602001807f416c726561647920617070726f7665640000000000000000000000000000000081525060200191505060405180910390fd5b600260008481526020019081526020016000206004013390806001815401808255809150509060018203906000526020600020016000909192909190916101000a81548173ffffffffffffffffffffffffffffffffffffffff021916908373ffffffffffffffffffffffffffffffffffffffff160217905550506040805190810160405280838152602001828152506002600085815260200190815260200160002060050160003373ffffffffffffffffffffffffffffffffffffffff1673ffffffffffffffffffffffffffffffffffffffff1681526020019081526020016000206000820151816000015560208201518160010155905050827f54593fbf3d0e13af724316e44a7387ee756ab753993496c7009658e83217002c60405160405180910390a2505050565b60006002600083815260200190815260200160002060000154111515611a84576040517f08c379a00000000000000000000000000000000000000000000000000000000081526004018080602001828103825260128152602001807f746f6b656e496420697320696e76616c6964000000000000000000000000000081525060200191505060405180910390fd5b611b2860026000838152602001908152602001600020600301805480602002602001604051908101604052809291908181526020018280548015611b1d57602002820191906000526020600020905b8160009054906101000a900473ffffffffffffffffffffffffffffffffffffffff1673ffffffffffffffffffffffffffffffffffffffff1681526020019060010190808311611ad3575b50505050503361230f565b1515611b9c576040517f08c379a000000000000000000000000000000000000000000000000000000000815260040180806020018281038252601a8152602001807f6973206e6f7420616e20617070726f766564206164647265737300000000000081525060200191505060405180910390fd5b611c4060026000838152602001908152602001600020600201805480602002602001604051908101604052809291908181526020018280548015611c3557602002820191906000526020600020905b8160009054906101000a900473ffffffffffffffffffffffffffffffffffffffff1673ffffffffffffffffffffffffffffffffffffffff1681526020019060010190808311611beb575b50505050503361230f565b151515611cb5576040517f08c379a00000000000000000000000000000000000000000000000000000000081526004018080602001828103825260158152602001807f697320616c726561647920636865636b656420696e000000000000000000000081525060200191505060405180910390fd5b600160009054906101000a900473ffffffffffffffffffffffffffffffffffffffff1673ffffffffffffffffffffffffffffffffffffffff166323b872dd333060026000868152602001908152602001600020600001546040518463ffffffff167c0100000000000000000000000000000000000000000000000000000000028152600401808473ffffffffffffffffffffffffffffffffffffffff1673ffffffffffffffffffffffffffffffffffffffff1681526020018373ffffffffffffffffffffffffffffffffffffffff1673ffffffffffffffffffffffffffffffffffffffff1681526020018281526020019350505050602060405180830381600087803b158015611dc457600080fd5b505af1158015611dd8573d6000803e3d6000fd5b505050506040513d6020811015611dee57600080fd5b81019080805190602001909291905050501515611e73576040517f08c379a00000000000000000000000000000000000000000000000000000000081526004018080602001828103825260118152602001807f6e6f7420656e6f75676820746f6b656e7300000000000000000000000000000081525060200191505060405180910390fd5b426002600083815260200190815260200160002060050160003373ffffffffffffffffffffffffffffffffffffffff1673ffffffffffffffffffffffffffffffffffffffff16815260200190815260200160002060000154101515611f40576040517f08c379a00000000000000000000000000000000000000000000000000000000081526004018080602001828103825260158152602001807f746f6f206561726c7920746f20636865636b20696e000000000000000000000081525060200191505060405180910390fd5b426002600083815260200190815260200160002060050160003373ffffffffffffffffffffffffffffffffffffffff1673ffffffffffffffffffffffffffffffffffffffff1681526020019081526020016000206001015411151561200d576040517f08c379a00000000000000000000000000000000000000000000000000000000081526004018080602001828103825260148152602001807f746f6f206c61746520746f20636865636b20696e00000000000000000000000081525060200191505060405180910390fd5b600260008281526020019081526020016000206002013390806001815401808255809150509060018203906000526020600020016000909192909190916101000a81548173ffffffffffffffffffffffffffffffffffffffff021916908373ffffffffffffffffffffffffffffffffffffffff1602179055505060016002600083815260200190815260200160002060010154016002600083815260200190815260200160002060010181905550807f10114a3921e255a9ca7fe6729a90430550edc377c3a1f0a2b2456d778f85218460405160405180910390a250565b60006060806060600060026000878152602001908152602001600020600001546002600088815260200190815260200160002060040160026000898152602001908152602001600020600301600260008a8152602001908152602001600020600201600260008b815260200190815260200160002060010154838054806020026020016040519081016040528092919081815260200182805480156121e557602002820191906000526020600020905b8160009054906101000a900473ffffffffffffffffffffffffffffffffffffffff1673ffffffffffffffffffffffffffffffffffffffff168152602001906001019080831161219b575b505050505093508280548060200260200160405190810160405280929190818152602001828054801561226d57602002820191906000526020600020905b8160009054906101000a900473ffffffffffffffffffffffffffffffffffffffff1673ffffffffffffffffffffffffffffffffffffffff1681526020019060010190808311612223575b50505050509250818054806020026020016040519081016040528092919081815260200182805480156122f557602002820191906000526020600020905b8160009054906101000a900473ffffffffffffffffffffffffffffffffffffffff1673ffffffffffffffffffffffffffffffffffffffff16815260200190600101908083116122ab575b505050505091509450945094509450945091939590929450565b60008060008090505b8451811015612382578373ffffffffffffffffffffffffffffffffffffffff16858281518110151561234657fe5b9060200190602002015173ffffffffffffffffffffffffffffffffffffffff1614156123755760019150612382565b8080600101915050612318565b819250505092915050565b600080600080600060028111156123a057fe5b8760028111156123ac57fe5b14156123cf5760026000878152602001908152602001600020600401915061244d565b600160028111156123dc57fe5b8760028111156123e857fe5b141561240b5760026000878152602001908152602001600020600301915061244c565b60028081111561241757fe5b87600281111561242357fe5b14156124465760026000878152602001908152602001600020600201915061244b565b6125f9565b5b5b600090505b81805490508110156124e3578473ffffffffffffffffffffffffffffffffffffffff16828281548110151561248357fe5b9060005260206000200160009054906101000a900473ffffffffffffffffffffffffffffffffffffffff1673ffffffffffffffffffffffffffffffffffffffff1614156124d657809350600192506124e3565b8080600101915050612452565b8215156124ef576125f9565b8390505b60018280549050038110156125a157816001820181548110151561251357fe5b9060005260206000200160009054906101000a900473ffffffffffffffffffffffffffffffffffffffff16828281548110151561254c57fe5b9060005260206000200160006101000a81548173ffffffffffffffffffffffffffffffffffffffff021916908373ffffffffffffffffffffffffffffffffffffffff16021790555080806001019150506124f3565b8160018380549050038154811015156125b657fe5b9060005260206000200160006101000a81549073ffffffffffffffffffffffffffffffffffffffff0219169055818054809190600190036125f7919061268c565b505b50505050505050565b82805482825590600052602060002090810192821561267b579160200282015b8281111561267a5782518260006101000a81548173ffffffffffffffffffffffffffffffffffffffff021916908373ffffffffffffffffffffffffffffffffffffffff16021790555091602001919060010190612622565b5b50905061268891906126b8565b5090565b8154818355818111156126b3578183600052602060002091820191016126b291906126fb565b5b505050565b6126f891905b808211156126f457600081816101000a81549073ffffffffffffffffffffffffffffffffffffffff0219169055506001016126be565b5090565b90565b61271d91905b80821115612719576000816000905550600101612701565b5090565b905600a165627a7a7230582043ab36ded56a9cccc5dc45ce0a3286449c4c819ba46e5b041eee2a0316c15ab70029",
  "source": "pragma solidity ^0.4.24;\n\nimport \"openzeppelin-solidity/contracts/token/ERC721/ERC721Basic.sol\";\nimport 'openzeppelin-solidity/contracts/token/ERC20/ERC20.sol';\n\ncontract PropertyRegistry {\n  ERC721Basic public property;\n  ERC20 public propertyToken;\n\n  mapping(uint256 => Data) public stayData;\n\n  struct Request {\n    uint256 checkIn;\n    uint256 checkOut;\n  }\n\n  struct Data{\n    uint256 price;\n    uint256 stays;\n    address[] occupants;\n    address[] approved;\n    address[] requested;\n    mapping(address => Request) requests;\n  }\n\n  enum GuestType {REQUESTED, APPROVED, OCCUPIED}\n  uint256 private ALLOCATION  = 100;\n\n  event Registered(uint256 indexed _tokenId);\n  event Approved(uint256 indexed _tokenId);\n  event Requested(uint256 indexed _tokenId);\n  event CheckedIn(uint256 indexed _tokenId);\n  event CheckedOut(uint256 indexed _tokenId);\n\n  modifier onlyOwner(uint256 _tokenId){\n    require(msg.sender == property.ownerOf(_tokenId));\n    _;\n  }\n\n  constructor(address _property, address _propertyToken) public {\n    property = ERC721Basic(_property);\n    propertyToken = ERC20(_propertyToken);\n  }\n\n    function registerProperty(uint256 _tokenId, uint256 _price) public onlyOwner(_tokenId){\n    stayData[_tokenId] = Data(_price, 0, new address[](0),  new address[](0),  new address[](0));\n    emit Registered(_tokenId);\n  }\n\n  function request(uint256 _tokenId, uint256 _checkIn, uint256 _checkOut) external {\n    //validate input parms\n    require(_checkIn != 0, \"check in date is not set\");\n    require(_checkOut != 0, \"check out date is not set\");\n    require(_checkOut > _checkIn, \"Check Out date should be after check In date\");\n    require(stayData[_tokenId].price > 0, \"tokenId is invalid\");\n\n    //make sure request is approved only once\n    //ADD: check CheckIn/CheckOut dates\n    if (isInArray(stayData[_tokenId].approved, msg.sender))\n      revert(\"Already approved\");\n\n    stayData[_tokenId].requested.push(msg.sender);\n    stayData[_tokenId].requests[msg.sender] = Request(_checkIn, _checkOut);\n    emit Requested(_tokenId);\n  }\n\n  function approveRequest(uint256 _tokenId, address guestAddress) external onlyOwner(_tokenId)\n  {\n    require(_tokenId != 0, \"Token Id is not set\");\n    require(isInArray(stayData[_tokenId].requested, guestAddress), \"no requests for this address\");\n    require(stayData[_tokenId].requests[guestAddress].checkIn > 0, \"request already approved\");\n\n    stayData[_tokenId].approved.push(guestAddress);\n    emit Approved(_tokenId);\n  }\n\n  function checkIn(uint256 _tokenId) public {\n    require(stayData[_tokenId].price > 0, \"tokenId is invalid\");\n    require(isInArray(stayData[_tokenId].approved, msg.sender), \"is not an approved address\");\n    require(!isInArray(stayData[_tokenId].occupants, msg.sender), \"is already checked in\");\n\n    //reserve funds\n    require(propertyToken.transferFrom(msg.sender, this, stayData[_tokenId].price), \"not enough tokens\");\n\n    //validate CheckIn time\n    require(stayData[_tokenId].requests[msg.sender].checkIn < now, \"too early to check in\");\n    require(stayData[_tokenId].requests[msg.sender].checkOut > now, \"too late to check in\");\n\n    stayData[_tokenId].occupants.push(msg.sender);\n    stayData[_tokenId].stays = stayData[_tokenId].stays + 1;\n    emit CheckedIn(_tokenId);\n  }\n\n  function checkOut(uint256 _tokenId) public{\n    require(stayData[_tokenId].price > 0, \"tokenId is invalid\");\n    require(isInArray(stayData[_tokenId].occupants, msg.sender), \"is not an approved address\");\n\n    //remove occupants record\n    removeFromArray(GuestType.OCCUPIED, _tokenId, msg.sender);\n    //remove approved record\n    removeFromArray(GuestType.APPROVED, _tokenId, msg.sender);\n    //remove requested record\n    removeFromArray(GuestType.REQUESTED, _tokenId, msg.sender);\n\n    //transfer funds to property owner\n    require(propertyToken.transfer(property.ownerOf(_tokenId), stayData[_tokenId].price));\n\n    //remove reservation struct\n    delete stayData[_tokenId].requests[msg.sender]; //remove request struct;\n    emit CheckedOut(_tokenId);\n  }\n\n  function getStayDataDetails(uint256 _tokenId, address _guestAddress) external view returns(uint256, uint256, uint256, address[], address[], address[]){\n      return (stayData[_tokenId].price, stayData[_tokenId].requests[_guestAddress].checkIn, stayData[_tokenId].requests[_guestAddress].checkOut, stayData[_tokenId].requested, stayData[_tokenId].approved, stayData[_tokenId].occupants);\n  }\n\n  function getStayData(uint256 _tokenId) external view returns(uint256, address[], address[], address[], uint256){\n      return (stayData[_tokenId].price, stayData[_tokenId].requested, stayData[_tokenId].approved, stayData[_tokenId].occupants, stayData[_tokenId].stays);\n  }\n\n  /*function transferBonusTokens(address _guest) public {\n    require(!freeTokens[_guest], 'can not mint more than once');\n    freeTokens[_guest] = true;\n    //??\n    //propertyToken.approve(this, 100);\n    //propertyToken.transfer(_guest, 100);\n  }**/\n\n  //HELPER FUNCTIONS\n  //move to different file?\n  function getArrayItem(GuestType guestType, uint256 tokenId, uint256 index) public view returns(address){\n    if (guestType == GuestType.REQUESTED){\n      if (index >= stayData[tokenId].requested.length)\n        return 0x0;\n      return stayData[tokenId].requested[index];\n    }\n    else if (guestType == GuestType.APPROVED) {\n      if (index >= stayData[tokenId].approved.length)\n        return 0x0;\n      return stayData[tokenId].approved[index];\n    }\n    else if (guestType == GuestType.OCCUPIED){\n      if (index >= stayData[tokenId].occupants.length)\n        return 0x0;\n      return stayData[tokenId].occupants[index];\n    }\n    else\n      return 0x0;\n  }\n\n  function isInArray(address[] arr, address val) private pure returns(bool){\n    bool exists;\n    for (uint256 i = 0; i < arr.length; i++){\n      if (arr[i] == val){\n        exists = true;\n        break;\n      }\n    }\n    return exists;\n  }\n\n  function removeFromArray(GuestType guestType, uint256 tokenId, address val) private {\n      uint256 index;\n      bool exists;\n      address[] storage arr;\n\n      if (guestType == GuestType.REQUESTED)\n        arr = stayData[tokenId].requested;\n      else if (guestType == GuestType.APPROVED)\n        arr = stayData[tokenId].approved;\n      else if (guestType == GuestType.OCCUPIED)\n        arr = stayData[tokenId].occupants;\n      else\n        return;\n\n      for (uint256 i = 0; i < arr.length; i++){\n        if (arr[i] == val){\n          index = i;\n          exists = true;\n          break;\n        }\n      }\n\n      if (!exists)\n        return;\n\n      for (i = index; i < arr.length - 1; i++){\n        arr[i] =  arr[i+1];\n      }\n      delete arr[arr.length-1];\n      arr.length--;\n    }\n}\n",
  "sourcePath": "C:\\Projects\\Lightlabs\\Property\\contracts\\PropertyRegistry.sol",
  "compiler": {
    "name": "solc",
    "version": "0.4.24+commit.e67f0147.Emscripten.clang"
  },
  "schemaVersion": "2.0.1",
  "updatedAt": "2018-10-19T19:03:59.406Z"
}